{
	"compilerInput": "{\"language\":\"Solidity\",\"sources\":{\"contracts/ClaimAttestor.sol\":{\"content\":\"// SPDX-License-Identifier: MIT\\npragma solidity ^0.8.21;\\n\\ncontract ClaimAttestor {\\n    event Attested(address indexed caller, bytes32 indexed root, string uri, uint256 timestamp);\\n    mapping(bytes32 => bool) public seen;\\n    function attest(bytes32 root, string calldata uri) external {\\n        require(root != bytes32(0), \\\"root empty\\\");\\n        require(bytes(uri).length > 0, \\\"uri empty\\\");\\n        require(!seen[root], \\\"root exists\\\");\\n        seen[root] = true;\\n        emit Attested(msg.sender, root, uri, block.timestamp);\\n    }\\n    function has(bytes32 root) external view returns (bool) { return seen[root]; }\\n}\\n\"}},\"settings\":{\"optimizer\":{\"enabled\":false,\"runs\":200},\"outputSelection\":{\"*\":{\"\":[\"ast\"],\"*\":[\"abi\",\"metadata\",\"devdoc\",\"userdoc\",\"storageLayout\",\"evm.legacyAssembly\",\"evm.bytecode\",\"evm.deployedBytecode\",\"evm.methodIdentifiers\",\"evm.gasEstimates\",\"evm.assembly\"]}},\"remappings\":[]}}",
	"name": "ClaimAttestor",
	"bytecode": {
		"linkReferences": {},
		"object": "6080604052348015600e575f5ffd5b506105cd8061001c5f395ff3fe608060405234801561000f575f5ffd5b506004361061003f575f3560e01c8063b7dc560f14610043578063beeb3f3414610073578063fc709c4e146100a3575b5f5ffd5b61005d600480360381019061005891906102a1565b6100bf565b60405161006a91906102e6565b60405180910390f35b61008d600480360381019061008891906102a1565b6100e4565b60405161009a91906102e6565b60405180910390f35b6100bd60048036038101906100b89190610360565b610100565b005b5f5f5f8381526020019081526020015f205f9054906101000a900460ff169050919050565b5f602052805f5260405f205f915054906101000a900460ff1681565b5f5f1b8303610144576040517f08c379a000000000000000000000000000000000000000000000000000000000815260040161013b90610417565b60405180910390fd5b5f8282905011610189576040517f08c379a00000000000000000000000000000000000000000000000000000000081526004016101809061047f565b60405180910390fd5b5f5f8481526020019081526020015f205f9054906101000a900460ff16156101e6576040517f08c379a00000000000000000000000000000000000000000000000000000000081526004016101dd906104e7565b60405180910390fd5b60015f5f8581526020019081526020015f205f6101000a81548160ff021916908315150217905550823373ffffffffffffffffffffffffffffffffffffffff167f7970b010f40f6857ad063dad62db23e21871719c95336c541f317088df2d9bdd84844260405161025993929190610567565b60405180910390a3505050565b5f5ffd5b5f5ffd5b5f819050919050565b6102808161026e565b811461028a575f5ffd5b50565b5f8135905061029b81610277565b92915050565b5f602082840312156102b6576102b5610266565b5b5f6102c38482850161028d565b91505092915050565b5f8115159050919050565b6102e0816102cc565b82525050565b5f6020820190506102f95f8301846102d7565b92915050565b5f5ffd5b5f5ffd5b5f5ffd5b5f5f83601f8401126103205761031f6102ff565b5b8235905067ffffffffffffffff81111561033d5761033c610303565b5b60208301915083600182028301111561035957610358610307565b5b9250929050565b5f5f5f6040848603121561037757610376610266565b5b5f6103848682870161028d565b935050602084013567ffffffffffffffff8111156103a5576103a461026a565b5b6103b18682870161030b565b92509250509250925092565b5f82825260208201905092915050565b7f726f6f7420656d707479000000000000000000000000000000000000000000005f82015250565b5f610401600a836103bd565b915061040c826103cd565b602082019050919050565b5f6020820190508181035f83015261042e816103f5565b9050919050565b7f75726920656d70747900000000000000000000000000000000000000000000005f82015250565b5f6104696009836103bd565b915061047482610435565b602082019050919050565b5f6020820190508181035f8301526104968161045d565b9050919050565b7f726f6f74206578697374730000000000000000000000000000000000000000005f82015250565b5f6104d1600b836103bd565b91506104dc8261049d565b602082019050919050565b5f6020820190508181035f8301526104fe816104c5565b9050919050565b828183375f83830152505050565b5f601f19601f8301169050919050565b5f61052e83856103bd565b935061053b838584610505565b61054483610513565b840190509392505050565b5f819050919050565b6105618161054f565b82525050565b5f6040820190508181035f830152610580818587610523565b905061058f6020830184610558565b94935050505056fea26469706673582212208a285b5eba7555c1890e5faaba79e50aa528f2974e1df20647f66ec4c26de94d64736f6c634300081e0033",
		"opcodes": "PUSH1 0x80 PUSH1 0x40 MSTORE CALLVALUE DUP1 ISZERO PUSH1 0xE JUMPI PUSH0 PUSH0 REVERT JUMPDEST POP PUSH2 0x5CD DUP1 PUSH2 0x1C PUSH0 CODECOPY PUSH0 RETURN INVALID PUSH1 0x80 PUSH1 0x40 MSTORE CALLVALUE DUP1 ISZERO PUSH2 0xF JUMPI PUSH0 PUSH0 REVERT JUMPDEST POP PUSH1 0x4 CALLDATASIZE LT PUSH2 0x3F JUMPI PUSH0 CALLDATALOAD PUSH1 0xE0 SHR DUP1 PUSH4 0xB7DC560F EQ PUSH2 0x43 JUMPI DUP1 PUSH4 0xBEEB3F34 EQ PUSH2 0x73 JUMPI DUP1 PUSH4 0xFC709C4E EQ PUSH2 0xA3 JUMPI JUMPDEST PUSH0 PUSH0 REVERT JUMPDEST PUSH2 0x5D PUSH1 0x4 DUP1 CALLDATASIZE SUB DUP2 ADD SWAP1 PUSH2 0x58 SWAP2 SWAP1 PUSH2 0x2A1 JUMP JUMPDEST PUSH2 0xBF JUMP JUMPDEST PUSH1 0x40 MLOAD PUSH2 0x6A SWAP2 SWAP1 PUSH2 0x2E6 JUMP JUMPDEST PUSH1 0x40 MLOAD DUP1 SWAP2 SUB SWAP1 RETURN JUMPDEST PUSH2 0x8D PUSH1 0x4 DUP1 CALLDATASIZE SUB DUP2 ADD SWAP1 PUSH2 0x88 SWAP2 SWAP1 PUSH2 0x2A1 JUMP JUMPDEST PUSH2 0xE4 JUMP JUMPDEST PUSH1 0x40 MLOAD PUSH2 0x9A SWAP2 SWAP1 PUSH2 0x2E6 JUMP JUMPDEST PUSH1 0x40 MLOAD DUP1 SWAP2 SUB SWAP1 RETURN JUMPDEST PUSH2 0xBD PUSH1 0x4 DUP1 CALLDATASIZE SUB DUP2 ADD SWAP1 PUSH2 0xB8 SWAP2 SWAP1 PUSH2 0x360 JUMP JUMPDEST PUSH2 0x100 JUMP JUMPDEST STOP JUMPDEST PUSH0 PUSH0 PUSH0 DUP4 DUP2 MSTORE PUSH1 0x20 ADD SWAP1 DUP2 MSTORE PUSH1 0x20 ADD PUSH0 KECCAK256 PUSH0 SWAP1 SLOAD SWAP1 PUSH2 0x100 EXP SWAP1 DIV PUSH1 0xFF AND SWAP1 POP SWAP2 SWAP1 POP JUMP JUMPDEST PUSH0 PUSH1 0x20 MSTORE DUP1 PUSH0 MSTORE PUSH1 0x40 PUSH0 KECCAK256 PUSH0 SWAP2 POP SLOAD SWAP1 PUSH2 0x100 EXP SWAP1 DIV PUSH1 0xFF AND DUP2 JUMP JUMPDEST PUSH0 PUSH0 SHL DUP4 SUB PUSH2 0x144 JUMPI PUSH1 0x40 MLOAD PUSH32 0x8C379A000000000000000000000000000000000000000000000000000000000 DUP2 MSTORE PUSH1 0x4 ADD PUSH2 0x13B SWAP1 PUSH2 0x417 JUMP JUMPDEST PUSH1 0x40 MLOAD DUP1 SWAP2 SUB SWAP1 REVERT JUMPDEST PUSH0 DUP3 DUP3 SWAP1 POP GT PUSH2 0x189 JUMPI PUSH1 0x40 MLOAD PUSH32 0x8C379A000000000000000000000000000000000000000000000000000000000 DUP2 MSTORE PUSH1 0x4 ADD PUSH2 0x180 SWAP1 PUSH2 0x47F JUMP JUMPDEST PUSH1 0x40 MLOAD DUP1 SWAP2 SUB SWAP1 REVERT JUMPDEST PUSH0 PUSH0 DUP5 DUP2 MSTORE PUSH1 0x20 ADD SWAP1 DUP2 MSTORE PUSH1 0x20 ADD PUSH0 KECCAK256 PUSH0 SWAP1 SLOAD SWAP1 PUSH2 0x100 EXP SWAP1 DIV PUSH1 0xFF AND ISZERO PUSH2 0x1E6 JUMPI PUSH1 0x40 MLOAD PUSH32 0x8C379A000000000000000000000000000000000000000000000000000000000 DUP2 MSTORE PUSH1 0x4 ADD PUSH2 0x1DD SWAP1 PUSH2 0x4E7 JUMP JUMPDEST PUSH1 0x40 MLOAD DUP1 SWAP2 SUB SWAP1 REVERT JUMPDEST PUSH1 0x1 PUSH0 PUSH0 DUP6 DUP2 MSTORE PUSH1 0x20 ADD SWAP1 DUP2 MSTORE PUSH1 0x20 ADD PUSH0 KECCAK256 PUSH0 PUSH2 0x100 EXP DUP2 SLOAD DUP2 PUSH1 0xFF MUL NOT AND SWAP1 DUP4 ISZERO ISZERO MUL OR SWAP1 SSTORE POP DUP3 CALLER PUSH20 0xFFFFFFFFFFFFFFFFFFFFFFFFFFFFFFFFFFFFFFFF AND PUSH32 0x7970B010F40F6857AD063DAD62DB23E21871719C95336C541F317088DF2D9BDD DUP5 DUP5 TIMESTAMP PUSH1 0x40 MLOAD PUSH2 0x259 SWAP4 SWAP3 SWAP2 SWAP1 PUSH2 0x567 JUMP JUMPDEST PUSH1 0x40 MLOAD DUP1 SWAP2 SUB SWAP1 LOG3 POP POP POP JUMP JUMPDEST PUSH0 PUSH0 REVERT JUMPDEST PUSH0 PUSH0 REVERT JUMPDEST PUSH0 DUP2 SWAP1 POP SWAP2 SWAP1 POP JUMP JUMPDEST PUSH2 0x280 DUP2 PUSH2 0x26E JUMP JUMPDEST DUP2 EQ PUSH2 0x28A JUMPI PUSH0 PUSH0 REVERT JUMPDEST POP JUMP JUMPDEST PUSH0 DUP2 CALLDATALOAD SWAP1 POP PUSH2 0x29B DUP2 PUSH2 0x277 JUMP JUMPDEST SWAP3 SWAP2 POP POP JUMP JUMPDEST PUSH0 PUSH1 0x20 DUP3 DUP5 SUB SLT ISZERO PUSH2 0x2B6 JUMPI PUSH2 0x2B5 PUSH2 0x266 JUMP JUMPDEST JUMPDEST PUSH0 PUSH2 0x2C3 DUP5 DUP3 DUP6 ADD PUSH2 0x28D JUMP JUMPDEST SWAP2 POP POP SWAP3 SWAP2 POP POP JUMP JUMPDEST PUSH0 DUP2 ISZERO ISZERO SWAP1 POP SWAP2 SWAP1 POP JUMP JUMPDEST PUSH2 0x2E0 DUP2 PUSH2 0x2CC JUMP JUMPDEST DUP3 MSTORE POP POP JUMP JUMPDEST PUSH0 PUSH1 0x20 DUP3 ADD SWAP1 POP PUSH2 0x2F9 PUSH0 DUP4 ADD DUP5 PUSH2 0x2D7 JUMP JUMPDEST SWAP3 SWAP2 POP POP JUMP JUMPDEST PUSH0 PUSH0 REVERT JUMPDEST PUSH0 PUSH0 REVERT JUMPDEST PUSH0 PUSH0 REVERT JUMPDEST PUSH0 PUSH0 DUP4 PUSH1 0x1F DUP5 ADD SLT PUSH2 0x320 JUMPI PUSH2 0x31F PUSH2 0x2FF JUMP JUMPDEST JUMPDEST DUP3 CALLDATALOAD SWAP1 POP PUSH8 0xFFFFFFFFFFFFFFFF DUP2 GT ISZERO PUSH2 0x33D JUMPI PUSH2 0x33C PUSH2 0x303 JUMP JUMPDEST JUMPDEST PUSH1 0x20 DUP4 ADD SWAP2 POP DUP4 PUSH1 0x1 DUP3 MUL DUP4 ADD GT ISZERO PUSH2 0x359 JUMPI PUSH2 0x358 PUSH2 0x307 JUMP JUMPDEST JUMPDEST SWAP3 POP SWAP3 SWAP1 POP JUMP JUMPDEST PUSH0 PUSH0 PUSH0 PUSH1 0x40 DUP5 DUP7 SUB SLT ISZERO PUSH2 0x377 JUMPI PUSH2 0x376 PUSH2 0x266 JUMP JUMPDEST JUMPDEST PUSH0 PUSH2 0x384 DUP7 DUP3 DUP8 ADD PUSH2 0x28D JUMP JUMPDEST SWAP4 POP POP PUSH1 0x20 DUP5 ADD CALLDATALOAD PUSH8 0xFFFFFFFFFFFFFFFF DUP2 GT ISZERO PUSH2 0x3A5 JUMPI PUSH2 0x3A4 PUSH2 0x26A JUMP JUMPDEST JUMPDEST PUSH2 0x3B1 DUP7 DUP3 DUP8 ADD PUSH2 0x30B JUMP JUMPDEST SWAP3 POP SWAP3 POP POP SWAP3 POP SWAP3 POP SWAP3 JUMP JUMPDEST PUSH0 DUP3 DUP3 MSTORE PUSH1 0x20 DUP3 ADD SWAP1 POP SWAP3 SWAP2 POP POP JUMP JUMPDEST PUSH32 0x726F6F7420656D70747900000000000000000000000000000000000000000000 PUSH0 DUP3 ADD MSTORE POP JUMP JUMPDEST PUSH0 PUSH2 0x401 PUSH1 0xA DUP4 PUSH2 0x3BD JUMP JUMPDEST SWAP2 POP PUSH2 0x40C DUP3 PUSH2 0x3CD JUMP JUMPDEST PUSH1 0x20 DUP3 ADD SWAP1 POP SWAP2 SWAP1 POP JUMP JUMPDEST PUSH0 PUSH1 0x20 DUP3 ADD SWAP1 POP DUP2 DUP2 SUB PUSH0 DUP4 ADD MSTORE PUSH2 0x42E DUP2 PUSH2 0x3F5 JUMP JUMPDEST SWAP1 POP SWAP2 SWAP1 POP JUMP JUMPDEST PUSH32 0x75726920656D7074790000000000000000000000000000000000000000000000 PUSH0 DUP3 ADD MSTORE POP JUMP JUMPDEST PUSH0 PUSH2 0x469 PUSH1 0x9 DUP4 PUSH2 0x3BD JUMP JUMPDEST SWAP2 POP PUSH2 0x474 DUP3 PUSH2 0x435 JUMP JUMPDEST PUSH1 0x20 DUP3 ADD SWAP1 POP SWAP2 SWAP1 POP JUMP JUMPDEST PUSH0 PUSH1 0x20 DUP3 ADD SWAP1 POP DUP2 DUP2 SUB PUSH0 DUP4 ADD MSTORE PUSH2 0x496 DUP2 PUSH2 0x45D JUMP JUMPDEST SWAP1 POP SWAP2 SWAP1 POP JUMP JUMPDEST PUSH32 0x726F6F7420657869737473000000000000000000000000000000000000000000 PUSH0 DUP3 ADD MSTORE POP JUMP JUMPDEST PUSH0 PUSH2 0x4D1 PUSH1 0xB DUP4 PUSH2 0x3BD JUMP JUMPDEST SWAP2 POP PUSH2 0x4DC DUP3 PUSH2 0x49D JUMP JUMPDEST PUSH1 0x20 DUP3 ADD SWAP1 POP SWAP2 SWAP1 POP JUMP JUMPDEST PUSH0 PUSH1 0x20 DUP3 ADD SWAP1 POP DUP2 DUP2 SUB PUSH0 DUP4 ADD MSTORE PUSH2 0x4FE DUP2 PUSH2 0x4C5 JUMP JUMPDEST SWAP1 POP SWAP2 SWAP1 POP JUMP JUMPDEST DUP3 DUP2 DUP4 CALLDATACOPY PUSH0 DUP4 DUP4 ADD MSTORE POP POP POP JUMP JUMPDEST PUSH0 PUSH1 0x1F NOT PUSH1 0x1F DUP4 ADD AND SWAP1 POP SWAP2 SWAP1 POP JUMP JUMPDEST PUSH0 PUSH2 0x52E DUP4 DUP6 PUSH2 0x3BD JUMP JUMPDEST SWAP4 POP PUSH2 0x53B DUP4 DUP6 DUP5 PUSH2 0x505 JUMP JUMPDEST PUSH2 0x544 DUP4 PUSH2 0x513 JUMP JUMPDEST DUP5 ADD SWAP1 POP SWAP4 SWAP3 POP POP POP JUMP JUMPDEST PUSH0 DUP2 SWAP1 POP SWAP2 SWAP1 POP JUMP JUMPDEST PUSH2 0x561 DUP2 PUSH2 0x54F JUMP JUMPDEST DUP3 MSTORE POP POP JUMP JUMPDEST PUSH0 PUSH1 0x40 DUP3 ADD SWAP1 POP DUP2 DUP2 SUB PUSH0 DUP4 ADD MSTORE PUSH2 0x580 DUP2 DUP6 DUP8 PUSH2 0x523 JUMP JUMPDEST SWAP1 POP PUSH2 0x58F PUSH1 0x20 DUP4 ADD DUP5 PUSH2 0x558 JUMP JUMPDEST SWAP5 SWAP4 POP POP POP POP JUMP INVALID LOG2 PUSH5 0x6970667358 0x22 SLT KECCAK256 DUP11 0x28 JUMPDEST MCOPY 0xBA PUSH22 0x55C1890E5FAABA79E50AA528F2974E1DF20647F66EC4 0xC2 PUSH14 0xE94D64736F6C634300081E003300 "
	},
	"abi": [
		{
			"anonymous": false,
			"inputs": [
				{
					"indexed": true,
					"internalType": "address",
					"name": "caller",
					"type": "address"
				},
				{
					"indexed": true,
					"internalType": "bytes32",
					"name": "root",
					"type": "bytes32"
				},
				{
					"indexed": false,
					"internalType": "string",
					"name": "uri",
					"type": "string"
				},
				{
					"indexed": false,
					"internalType": "uint256",
					"name": "timestamp",
					"type": "uint256"
				}
			],
			"name": "Attested",
			"type": "event"
		},
		{
			"inputs": [
				{
					"internalType": "bytes32",
					"name": "root",
					"type": "bytes32"
				},
				{
					"internalType": "string",
					"name": "uri",
					"type": "string"
				}
			],
			"name": "attest",
			"outputs": [],
			"stateMutability": "nonpayable",
			"type": "function"
		},
		{
			"inputs": [
				{
					"internalType": "bytes32",
					"name": "root",
					"type": "bytes32"
				}
			],
			"name": "has",
			"outputs": [
				{
					"internalType": "bool",
					"name": "",
					"type": "bool"
				}
			],
			"stateMutability": "view",
			"type": "function"
		},
		{
			"inputs": [
				{
					"internalType": "bytes32",
					"name": "",
					"type": "bytes32"
				}
			],
			"name": "seen",
			"outputs": [
				{
					"internalType": "bool",
					"name": "",
					"type": "bool"
				}
			],
			"stateMutability": "view",
			"type": "function"
		}
	],
	"storageLayout": {
		"storage": [
			{
				"astId": 15,
				"contract": "contracts/ClaimAttestor.sol:ClaimAttestor",
				"label": "seen",
				"offset": 0,
				"slot": "0",
				"type": "t_mapping(t_bytes32,t_bool)"
			}
		],
		"types": {
			"t_bool": {
				"encoding": "inplace",
				"label": "bool",
				"numberOfBytes": "1"
			},
			"t_bytes32": {
				"encoding": "inplace",
				"label": "bytes32",
				"numberOfBytes": "32"
			},
			"t_mapping(t_bytes32,t_bool)": {
				"encoding": "mapping",
				"key": "t_bytes32",
				"label": "mapping(bytes32 => bool)",
				"numberOfBytes": "32",
				"value": "t_bool"
			}
		}
	},
	"web3Deploy": "var claimattestorContract = new web3.eth.Contract([{\"anonymous\":false,\"inputs\":[{\"indexed\":true,\"internalType\":\"address\",\"name\":\"caller\",\"type\":\"address\"},{\"indexed\":true,\"internalType\":\"bytes32\",\"name\":\"root\",\"type\":\"bytes32\"},{\"indexed\":false,\"internalType\":\"string\",\"name\":\"uri\",\"type\":\"string\"},{\"indexed\":false,\"internalType\":\"uint256\",\"name\":\"timestamp\",\"type\":\"uint256\"}],\"name\":\"Attested\",\"type\":\"event\"},{\"inputs\":[{\"internalType\":\"bytes32\",\"name\":\"root\",\"type\":\"bytes32\"},{\"internalType\":\"string\",\"name\":\"uri\",\"type\":\"string\"}],\"name\":\"attest\",\"outputs\":[],\"stateMutability\":\"nonpayable\",\"type\":\"function\"},{\"inputs\":[{\"internalType\":\"bytes32\",\"name\":\"root\",\"type\":\"bytes32\"}],\"name\":\"has\",\"outputs\":[{\"internalType\":\"bool\",\"name\":\"\",\"type\":\"bool\"}],\"stateMutability\":\"view\",\"type\":\"function\"},{\"inputs\":[{\"internalType\":\"bytes32\",\"name\":\"\",\"type\":\"bytes32\"}],\"name\":\"seen\",\"outputs\":[{\"internalType\":\"bool\",\"name\":\"\",\"type\":\"bool\"}],\"stateMutability\":\"view\",\"type\":\"function\"}]);\nvar claimattestor = claimattestorContract.deploy({\n     data: '0x6080604052348015600e575f5ffd5b506105cd8061001c5f395ff3fe608060405234801561000f575f5ffd5b506004361061003f575f3560e01c8063b7dc560f14610043578063beeb3f3414610073578063fc709c4e146100a3575b5f5ffd5b61005d600480360381019061005891906102a1565b6100bf565b60405161006a91906102e6565b60405180910390f35b61008d600480360381019061008891906102a1565b6100e4565b60405161009a91906102e6565b60405180910390f35b6100bd60048036038101906100b89190610360565b610100565b005b5f5f5f8381526020019081526020015f205f9054906101000a900460ff169050919050565b5f602052805f5260405f205f915054906101000a900460ff1681565b5f5f1b8303610144576040517f08c379a000000000000000000000000000000000000000000000000000000000815260040161013b90610417565b60405180910390fd5b5f8282905011610189576040517f08c379a00000000000000000000000000000000000000000000000000000000081526004016101809061047f565b60405180910390fd5b5f5f8481526020019081526020015f205f9054906101000a900460ff16156101e6576040517f08c379a00000000000000000000000000000000000000000000000000000000081526004016101dd906104e7565b60405180910390fd5b60015f5f8581526020019081526020015f205f6101000a81548160ff021916908315150217905550823373ffffffffffffffffffffffffffffffffffffffff167f7970b010f40f6857ad063dad62db23e21871719c95336c541f317088df2d9bdd84844260405161025993929190610567565b60405180910390a3505050565b5f5ffd5b5f5ffd5b5f819050919050565b6102808161026e565b811461028a575f5ffd5b50565b5f8135905061029b81610277565b92915050565b5f602082840312156102b6576102b5610266565b5b5f6102c38482850161028d565b91505092915050565b5f8115159050919050565b6102e0816102cc565b82525050565b5f6020820190506102f95f8301846102d7565b92915050565b5f5ffd5b5f5ffd5b5f5ffd5b5f5f83601f8401126103205761031f6102ff565b5b8235905067ffffffffffffffff81111561033d5761033c610303565b5b60208301915083600182028301111561035957610358610307565b5b9250929050565b5f5f5f6040848603121561037757610376610266565b5b5f6103848682870161028d565b935050602084013567ffffffffffffffff8111156103a5576103a461026a565b5b6103b18682870161030b565b92509250509250925092565b5f82825260208201905092915050565b7f726f6f7420656d707479000000000000000000000000000000000000000000005f82015250565b5f610401600a836103bd565b915061040c826103cd565b602082019050919050565b5f6020820190508181035f83015261042e816103f5565b9050919050565b7f75726920656d70747900000000000000000000000000000000000000000000005f82015250565b5f6104696009836103bd565b915061047482610435565b602082019050919050565b5f6020820190508181035f8301526104968161045d565b9050919050565b7f726f6f74206578697374730000000000000000000000000000000000000000005f82015250565b5f6104d1600b836103bd565b91506104dc8261049d565b602082019050919050565b5f6020820190508181035f8301526104fe816104c5565b9050919050565b828183375f83830152505050565b5f601f19601f8301169050919050565b5f61052e83856103bd565b935061053b838584610505565b61054483610513565b840190509392505050565b5f819050919050565b6105618161054f565b82525050565b5f6040820190508181035f830152610580818587610523565b905061058f6020830184610558565b94935050505056fea26469706673582212208a285b5eba7555c1890e5faaba79e50aa528f2974e1df20647f66ec4c26de94d64736f6c634300081e0033', \n     arguments: [\n     ]\n}).send({\n     from: web3.eth.accounts[0], \n     gas: '4700000'\n   }, function (e, contract){\n    console.log(e, contract);\n    if (typeof contract.address !== 'undefined') {\n         console.log('Contract mined! address: ' + contract.address + ' transactionHash: ' + contract.transactionHash);\n    }\n })",
	"functionHashes": {
		"fc709c4e": "attest(bytes32,string)",
		"b7dc560f": "has(bytes32)",
		"beeb3f34": "seen(bytes32)"
	},
	"gasEstimates": {
		"Creation": {
			"codeDepositCost": "297000",
			"executionCost": "335",
			"totalCost": "297335"
		},
		"External": {
			"attest(bytes32,string)": "infinite",
			"has(bytes32)": "2787",
			"seen(bytes32)": "2784"
		}
	},
	"devdoc": {
		"kind": "dev",
		"methods": {},
		"version": 1
	},
	"userdoc": {
		"kind": "user",
		"methods": {},
		"version": 1
	},
	"Runtime Bytecode": {
		"immutableReferences": {},
		"linkReferences": {},
		"object": "608060405234801561000f575f5ffd5b506004361061003f575f3560e01c8063b7dc560f14610043578063beeb3f3414610073578063fc709c4e146100a3575b5f5ffd5b61005d600480360381019061005891906102a1565b6100bf565b60405161006a91906102e6565b60405180910390f35b61008d600480360381019061008891906102a1565b6100e4565b60405161009a91906102e6565b60405180910390f35b6100bd60048036038101906100b89190610360565b610100565b005b5f5f5f8381526020019081526020015f205f9054906101000a900460ff169050919050565b5f602052805f5260405f205f915054906101000a900460ff1681565b5f5f1b8303610144576040517f08c379a000000000000000000000000000000000000000000000000000000000815260040161013b90610417565b60405180910390fd5b5f8282905011610189576040517f08c379a00000000000000000000000000000000000000000000000000000000081526004016101809061047f565b60405180910390fd5b5f5f8481526020019081526020015f205f9054906101000a900460ff16156101e6576040517f08c379a00000000000000000000000000000000000000000000000000000000081526004016101dd906104e7565b60405180910390fd5b60015f5f8581526020019081526020015f205f6101000a81548160ff021916908315150217905550823373ffffffffffffffffffffffffffffffffffffffff167f7970b010f40f6857ad063dad62db23e21871719c95336c541f317088df2d9bdd84844260405161025993929190610567565b60405180910390a3505050565b5f5ffd5b5f5ffd5b5f819050919050565b6102808161026e565b811461028a575f5ffd5b50565b5f8135905061029b81610277565b92915050565b5f602082840312156102b6576102b5610266565b5b5f6102c38482850161028d565b91505092915050565b5f8115159050919050565b6102e0816102cc565b82525050565b5f6020820190506102f95f8301846102d7565b92915050565b5f5ffd5b5f5ffd5b5f5ffd5b5f5f83601f8401126103205761031f6102ff565b5b8235905067ffffffffffffffff81111561033d5761033c610303565b5b60208301915083600182028301111561035957610358610307565b5b9250929050565b5f5f5f6040848603121561037757610376610266565b5b5f6103848682870161028d565b935050602084013567ffffffffffffffff8111156103a5576103a461026a565b5b6103b18682870161030b565b92509250509250925092565b5f82825260208201905092915050565b7f726f6f7420656d707479000000000000000000000000000000000000000000005f82015250565b5f610401600a836103bd565b915061040c826103cd565b602082019050919050565b5f6020820190508181035f83015261042e816103f5565b9050919050565b7f75726920656d70747900000000000000000000000000000000000000000000005f82015250565b5f6104696009836103bd565b915061047482610435565b602082019050919050565b5f6020820190508181035f8301526104968161045d565b9050919050565b7f726f6f74206578697374730000000000000000000000000000000000000000005f82015250565b5f6104d1600b836103bd565b91506104dc8261049d565b602082019050919050565b5f6020820190508181035f8301526104fe816104c5565b9050919050565b828183375f83830152505050565b5f601f19601f8301169050919050565b5f61052e83856103bd565b935061053b838584610505565b61054483610513565b840190509392505050565b5f819050919050565b6105618161054f565b82525050565b5f6040820190508181035f830152610580818587610523565b905061058f6020830184610558565b94935050505056fea26469706673582212208a285b5eba7555c1890e5faaba79e50aa528f2974e1df20647f66ec4c26de94d64736f6c634300081e0033",
		"opcodes": "PUSH1 0x80 PUSH1 0x40 MSTORE CALLVALUE DUP1 ISZERO PUSH2 0xF JUMPI PUSH0 PUSH0 REVERT JUMPDEST POP PUSH1 0x4 CALLDATASIZE LT PUSH2 0x3F JUMPI PUSH0 CALLDATALOAD PUSH1 0xE0 SHR DUP1 PUSH4 0xB7DC560F EQ PUSH2 0x43 JUMPI DUP1 PUSH4 0xBEEB3F34 EQ PUSH2 0x73 JUMPI DUP1 PUSH4 0xFC709C4E EQ PUSH2 0xA3 JUMPI JUMPDEST PUSH0 PUSH0 REVERT JUMPDEST PUSH2 0x5D PUSH1 0x4 DUP1 CALLDATASIZE SUB DUP2 ADD SWAP1 PUSH2 0x58 SWAP2 SWAP1 PUSH2 0x2A1 JUMP JUMPDEST PUSH2 0xBF JUMP JUMPDEST PUSH1 0x40 MLOAD PUSH2 0x6A SWAP2 SWAP1 PUSH2 0x2E6 JUMP JUMPDEST PUSH1 0x40 MLOAD DUP1 SWAP2 SUB SWAP1 RETURN JUMPDEST PUSH2 0x8D PUSH1 0x4 DUP1 CALLDATASIZE SUB DUP2 ADD SWAP1 PUSH2 0x88 SWAP2 SWAP1 PUSH2 0x2A1 JUMP JUMPDEST PUSH2 0xE4 JUMP JUMPDEST PUSH1 0x40 MLOAD PUSH2 0x9A SWAP2 SWAP1 PUSH2 0x2E6 JUMP JUMPDEST PUSH1 0x40 MLOAD DUP1 SWAP2 SUB SWAP1 RETURN JUMPDEST PUSH2 0xBD PUSH1 0x4 DUP1 CALLDATASIZE SUB DUP2 ADD SWAP1 PUSH2 0xB8 SWAP2 SWAP1 PUSH2 0x360 JUMP JUMPDEST PUSH2 0x100 JUMP JUMPDEST STOP JUMPDEST PUSH0 PUSH0 PUSH0 DUP4 DUP2 MSTORE PUSH1 0x20 ADD SWAP1 DUP2 MSTORE PUSH1 0x20 ADD PUSH0 KECCAK256 PUSH0 SWAP1 SLOAD SWAP1 PUSH2 0x100 EXP SWAP1 DIV PUSH1 0xFF AND SWAP1 POP SWAP2 SWAP1 POP JUMP JUMPDEST PUSH0 PUSH1 0x20 MSTORE DUP1 PUSH0 MSTORE PUSH1 0x40 PUSH0 KECCAK256 PUSH0 SWAP2 POP SLOAD SWAP1 PUSH2 0x100 EXP SWAP1 DIV PUSH1 0xFF AND DUP2 JUMP JUMPDEST PUSH0 PUSH0 SHL DUP4 SUB PUSH2 0x144 JUMPI PUSH1 0x40 MLOAD PUSH32 0x8C379A000000000000000000000000000000000000000000000000000000000 DUP2 MSTORE PUSH1 0x4 ADD PUSH2 0x13B SWAP1 PUSH2 0x417 JUMP JUMPDEST PUSH1 0x40 MLOAD DUP1 SWAP2 SUB SWAP1 REVERT JUMPDEST PUSH0 DUP3 DUP3 SWAP1 POP GT PUSH2 0x189 JUMPI PUSH1 0x40 MLOAD PUSH32 0x8C379A000000000000000000000000000000000000000000000000000000000 DUP2 MSTORE PUSH1 0x4 ADD PUSH2 0x180 SWAP1 PUSH2 0x47F JUMP JUMPDEST PUSH1 0x40 MLOAD DUP1 SWAP2 SUB SWAP1 REVERT JUMPDEST PUSH0 PUSH0 DUP5 DUP2 MSTORE PUSH1 0x20 ADD SWAP1 DUP2 MSTORE PUSH1 0x20 ADD PUSH0 KECCAK256 PUSH0 SWAP1 SLOAD SWAP1 PUSH2 0x100 EXP SWAP1 DIV PUSH1 0xFF AND ISZERO PUSH2 0x1E6 JUMPI PUSH1 0x40 MLOAD PUSH32 0x8C379A000000000000000000000000000000000000000000000000000000000 DUP2 MSTORE PUSH1 0x4 ADD PUSH2 0x1DD SWAP1 PUSH2 0x4E7 JUMP JUMPDEST PUSH1 0x40 MLOAD DUP1 SWAP2 SUB SWAP1 REVERT JUMPDEST PUSH1 0x1 PUSH0 PUSH0 DUP6 DUP2 MSTORE PUSH1 0x20 ADD SWAP1 DUP2 MSTORE PUSH1 0x20 ADD PUSH0 KECCAK256 PUSH0 PUSH2 0x100 EXP DUP2 SLOAD DUP2 PUSH1 0xFF MUL NOT AND SWAP1 DUP4 ISZERO ISZERO MUL OR SWAP1 SSTORE POP DUP3 CALLER PUSH20 0xFFFFFFFFFFFFFFFFFFFFFFFFFFFFFFFFFFFFFFFF AND PUSH32 0x7970B010F40F6857AD063DAD62DB23E21871719C95336C541F317088DF2D9BDD DUP5 DUP5 TIMESTAMP PUSH1 0x40 MLOAD PUSH2 0x259 SWAP4 SWAP3 SWAP2 SWAP1 PUSH2 0x567 JUMP JUMPDEST PUSH1 0x40 MLOAD DUP1 SWAP2 SUB SWAP1 LOG3 POP POP POP JUMP JUMPDEST PUSH0 PUSH0 REVERT JUMPDEST PUSH0 PUSH0 REVERT JUMPDEST PUSH0 DUP2 SWAP1 POP SWAP2 SWAP1 POP JUMP JUMPDEST PUSH2 0x280 DUP2 PUSH2 0x26E JUMP JUMPDEST DUP2 EQ PUSH2 0x28A JUMPI PUSH0 PUSH0 REVERT JUMPDEST POP JUMP JUMPDEST PUSH0 DUP2 CALLDATALOAD SWAP1 POP PUSH2 0x29B DUP2 PUSH2 0x277 JUMP JUMPDEST SWAP3 SWAP2 POP POP JUMP JUMPDEST PUSH0 PUSH1 0x20 DUP3 DUP5 SUB SLT ISZERO PUSH2 0x2B6 JUMPI PUSH2 0x2B5 PUSH2 0x266 JUMP JUMPDEST JUMPDEST PUSH0 PUSH2 0x2C3 DUP5 DUP3 DUP6 ADD PUSH2 0x28D JUMP JUMPDEST SWAP2 POP POP SWAP3 SWAP2 POP POP JUMP JUMPDEST PUSH0 DUP2 ISZERO ISZERO SWAP1 POP SWAP2 SWAP1 POP JUMP JUMPDEST PUSH2 0x2E0 DUP2 PUSH2 0x2CC JUMP JUMPDEST DUP3 MSTORE POP POP JUMP JUMPDEST PUSH0 PUSH1 0x20 DUP3 ADD SWAP1 POP PUSH2 0x2F9 PUSH0 DUP4 ADD DUP5 PUSH2 0x2D7 JUMP JUMPDEST SWAP3 SWAP2 POP POP JUMP JUMPDEST PUSH0 PUSH0 REVERT JUMPDEST PUSH0 PUSH0 REVERT JUMPDEST PUSH0 PUSH0 REVERT JUMPDEST PUSH0 PUSH0 DUP4 PUSH1 0x1F DUP5 ADD SLT PUSH2 0x320 JUMPI PUSH2 0x31F PUSH2 0x2FF JUMP JUMPDEST JUMPDEST DUP3 CALLDATALOAD SWAP1 POP PUSH8 0xFFFFFFFFFFFFFFFF DUP2 GT ISZERO PUSH2 0x33D JUMPI PUSH2 0x33C PUSH2 0x303 JUMP JUMPDEST JUMPDEST PUSH1 0x20 DUP4 ADD SWAP2 POP DUP4 PUSH1 0x1 DUP3 MUL DUP4 ADD GT ISZERO PUSH2 0x359 JUMPI PUSH2 0x358 PUSH2 0x307 JUMP JUMPDEST JUMPDEST SWAP3 POP SWAP3 SWAP1 POP JUMP JUMPDEST PUSH0 PUSH0 PUSH0 PUSH1 0x40 DUP5 DUP7 SUB SLT ISZERO PUSH2 0x377 JUMPI PUSH2 0x376 PUSH2 0x266 JUMP JUMPDEST JUMPDEST PUSH0 PUSH2 0x384 DUP7 DUP3 DUP8 ADD PUSH2 0x28D JUMP JUMPDEST SWAP4 POP POP PUSH1 0x20 DUP5 ADD CALLDATALOAD PUSH8 0xFFFFFFFFFFFFFFFF DUP2 GT ISZERO PUSH2 0x3A5 JUMPI PUSH2 0x3A4 PUSH2 0x26A JUMP JUMPDEST JUMPDEST PUSH2 0x3B1 DUP7 DUP3 DUP8 ADD PUSH2 0x30B JUMP JUMPDEST SWAP3 POP SWAP3 POP POP SWAP3 POP SWAP3 POP SWAP3 JUMP JUMPDEST PUSH0 DUP3 DUP3 MSTORE PUSH1 0x20 DUP3 ADD SWAP1 POP SWAP3 SWAP2 POP POP JUMP JUMPDEST PUSH32 0x726F6F7420656D70747900000000000000000000000000000000000000000000 PUSH0 DUP3 ADD MSTORE POP JUMP JUMPDEST PUSH0 PUSH2 0x401 PUSH1 0xA DUP4 PUSH2 0x3BD JUMP JUMPDEST SWAP2 POP PUSH2 0x40C DUP3 PUSH2 0x3CD JUMP JUMPDEST PUSH1 0x20 DUP3 ADD SWAP1 POP SWAP2 SWAP1 POP JUMP JUMPDEST PUSH0 PUSH1 0x20 DUP3 ADD SWAP1 POP DUP2 DUP2 SUB PUSH0 DUP4 ADD MSTORE PUSH2 0x42E DUP2 PUSH2 0x3F5 JUMP JUMPDEST SWAP1 POP SWAP2 SWAP1 POP JUMP JUMPDEST PUSH32 0x75726920656D7074790000000000000000000000000000000000000000000000 PUSH0 DUP3 ADD MSTORE POP JUMP JUMPDEST PUSH0 PUSH2 0x469 PUSH1 0x9 DUP4 PUSH2 0x3BD JUMP JUMPDEST SWAP2 POP PUSH2 0x474 DUP3 PUSH2 0x435 JUMP JUMPDEST PUSH1 0x20 DUP3 ADD SWAP1 POP SWAP2 SWAP1 POP JUMP JUMPDEST PUSH0 PUSH1 0x20 DUP3 ADD SWAP1 POP DUP2 DUP2 SUB PUSH0 DUP4 ADD MSTORE PUSH2 0x496 DUP2 PUSH2 0x45D JUMP JUMPDEST SWAP1 POP SWAP2 SWAP1 POP JUMP JUMPDEST PUSH32 0x726F6F7420657869737473000000000000000000000000000000000000000000 PUSH0 DUP3 ADD MSTORE POP JUMP JUMPDEST PUSH0 PUSH2 0x4D1 PUSH1 0xB DUP4 PUSH2 0x3BD JUMP JUMPDEST SWAP2 POP PUSH2 0x4DC DUP3 PUSH2 0x49D JUMP JUMPDEST PUSH1 0x20 DUP3 ADD SWAP1 POP SWAP2 SWAP1 POP JUMP JUMPDEST PUSH0 PUSH1 0x20 DUP3 ADD SWAP1 POP DUP2 DUP2 SUB PUSH0 DUP4 ADD MSTORE PUSH2 0x4FE DUP2 PUSH2 0x4C5 JUMP JUMPDEST SWAP1 POP SWAP2 SWAP1 POP JUMP JUMPDEST DUP3 DUP2 DUP4 CALLDATACOPY PUSH0 DUP4 DUP4 ADD MSTORE POP POP POP JUMP JUMPDEST PUSH0 PUSH1 0x1F NOT PUSH1 0x1F DUP4 ADD AND SWAP1 POP SWAP2 SWAP1 POP JUMP JUMPDEST PUSH0 PUSH2 0x52E DUP4 DUP6 PUSH2 0x3BD JUMP JUMPDEST SWAP4 POP PUSH2 0x53B DUP4 DUP6 DUP5 PUSH2 0x505 JUMP JUMPDEST PUSH2 0x544 DUP4 PUSH2 0x513 JUMP JUMPDEST DUP5 ADD SWAP1 POP SWAP4 SWAP3 POP POP POP JUMP JUMPDEST PUSH0 DUP2 SWAP1 POP SWAP2 SWAP1 POP JUMP JUMPDEST PUSH2 0x561 DUP2 PUSH2 0x54F JUMP JUMPDEST DUP3 MSTORE POP POP JUMP JUMPDEST PUSH0 PUSH1 0x40 DUP3 ADD SWAP1 POP DUP2 DUP2 SUB PUSH0 DUP4 ADD MSTORE PUSH2 0x580 DUP2 DUP6 DUP8 PUSH2 0x523 JUMP JUMPDEST SWAP1 POP PUSH2 0x58F PUSH1 0x20 DUP4 ADD DUP5 PUSH2 0x558 JUMP JUMPDEST SWAP5 SWAP4 POP POP POP POP JUMP INVALID LOG2 PUSH5 0x6970667358 0x22 SLT KECCAK256 DUP11 0x28 JUMPDEST MCOPY 0xBA PUSH22 0x55C1890E5FAABA79E50AA528F2974E1DF20647F66EC4 0xC2 PUSH14 0xE94D64736F6C634300081E003300 "
	},
	"Assembly": ".code\n  PUSH 80\t\t\tcontract ClaimAttestor {\\n    ...\n  PUSH 40\t\t\tcontract ClaimAttestor {\\n    ...\n  MSTORE \t\t\tcontract ClaimAttestor {\\n    ...\n  CALLVALUE \t\t\tcontract ClaimAttestor {\\n    ...\n  DUP1 \t\t\tcontract ClaimAttestor {\\n    ...\n  ISZERO \t\t\tcontract ClaimAttestor {\\n    ...\n  PUSH [tag] 1\t\t\tcontract ClaimAttestor {\\n    ...\n  JUMPI \t\t\tcontract ClaimAttestor {\\n    ...\n  PUSH 0\t\t\tcontract ClaimAttestor {\\n    ...\n  PUSH 0\t\t\tcontract ClaimAttestor {\\n    ...\n  REVERT \t\t\tcontract ClaimAttestor {\\n    ...\ntag 1\t\t\tcontract ClaimAttestor {\\n    ...\n  JUMPDEST \t\t\tcontract ClaimAttestor {\\n    ...\n  POP \t\t\tcontract ClaimAttestor {\\n    ...\n  PUSH #[$] 0000000000000000000000000000000000000000000000000000000000000000\t\t\tcontract ClaimAttestor {\\n    ...\n  DUP1 \t\t\tcontract ClaimAttestor {\\n    ...\n  PUSH [$] 0000000000000000000000000000000000000000000000000000000000000000\t\t\tcontract ClaimAttestor {\\n    ...\n  PUSH 0\t\t\tcontract ClaimAttestor {\\n    ...\n  CODECOPY \t\t\tcontract ClaimAttestor {\\n    ...\n  PUSH 0\t\t\tcontract ClaimAttestor {\\n    ...\n  RETURN \t\t\tcontract ClaimAttestor {\\n    ...\n.data\n  0:\n    .code\n      PUSH 80\t\t\tcontract ClaimAttestor {\\n    ...\n      PUSH 40\t\t\tcontract ClaimAttestor {\\n    ...\n      MSTORE \t\t\tcontract ClaimAttestor {\\n    ...\n      CALLVALUE \t\t\tcontract ClaimAttestor {\\n    ...\n      DUP1 \t\t\tcontract ClaimAttestor {\\n    ...\n      ISZERO \t\t\tcontract ClaimAttestor {\\n    ...\n      PUSH [tag] 1\t\t\tcontract ClaimAttestor {\\n    ...\n      JUMPI \t\t\tcontract ClaimAttestor {\\n    ...\n      PUSH 0\t\t\tcontract ClaimAttestor {\\n    ...\n      PUSH 0\t\t\tcontract ClaimAttestor {\\n    ...\n      REVERT \t\t\tcontract ClaimAttestor {\\n    ...\n    tag 1\t\t\tcontract ClaimAttestor {\\n    ...\n      JUMPDEST \t\t\tcontract ClaimAttestor {\\n    ...\n      POP \t\t\tcontract ClaimAttestor {\\n    ...\n      PUSH 4\t\t\tcontract ClaimAttestor {\\n    ...\n      CALLDATASIZE \t\t\tcontract ClaimAttestor {\\n    ...\n      LT \t\t\tcontract ClaimAttestor {\\n    ...\n      PUSH [tag] 2\t\t\tcontract ClaimAttestor {\\n    ...\n      JUMPI \t\t\tcontract ClaimAttestor {\\n    ...\n      PUSH 0\t\t\tcontract ClaimAttestor {\\n    ...\n      CALLDATALOAD \t\t\tcontract ClaimAttestor {\\n    ...\n      PUSH E0\t\t\tcontract ClaimAttestor {\\n    ...\n      SHR \t\t\tcontract ClaimAttestor {\\n    ...\n      DUP1 \t\t\tcontract ClaimAttestor {\\n    ...\n      PUSH B7DC560F\t\t\tcontract ClaimAttestor {\\n    ...\n      EQ \t\t\tcontract ClaimAttestor {\\n    ...\n      PUSH [tag] 3\t\t\tcontract ClaimAttestor {\\n    ...\n      JUMPI \t\t\tcontract ClaimAttestor {\\n    ...\n      DUP1 \t\t\tcontract ClaimAttestor {\\n    ...\n      PUSH BEEB3F34\t\t\tcontract ClaimAttestor {\\n    ...\n      EQ \t\t\tcontract ClaimAttestor {\\n    ...\n      PUSH [tag] 4\t\t\tcontract ClaimAttestor {\\n    ...\n      JUMPI \t\t\tcontract ClaimAttestor {\\n    ...\n      DUP1 \t\t\tcontract ClaimAttestor {\\n    ...\n      PUSH FC709C4E\t\t\tcontract ClaimAttestor {\\n    ...\n      EQ \t\t\tcontract ClaimAttestor {\\n    ...\n      PUSH [tag] 5\t\t\tcontract ClaimAttestor {\\n    ...\n      JUMPI \t\t\tcontract ClaimAttestor {\\n    ...\n    tag 2\t\t\tcontract ClaimAttestor {\\n    ...\n      JUMPDEST \t\t\tcontract ClaimAttestor {\\n    ...\n      PUSH 0\t\t\tcontract ClaimAttestor {\\n    ...\n      PUSH 0\t\t\tcontract ClaimAttestor {\\n    ...\n      REVERT \t\t\tcontract ClaimAttestor {\\n    ...\n    tag 3\t\t\tfunction has(bytes32 root) ext...\n      JUMPDEST \t\t\tfunction has(bytes32 root) ext...\n      PUSH [tag] 6\t\t\tfunction has(bytes32 root) ext...\n      PUSH 4\t\t\tfunction has(bytes32 root) ext...\n      DUP1 \t\t\tfunction has(bytes32 root) ext...\n      CALLDATASIZE \t\t\tfunction has(bytes32 root) ext...\n      SUB \t\t\tfunction has(bytes32 root) ext...\n      DUP2 \t\t\tfunction has(bytes32 root) ext...\n      ADD \t\t\tfunction has(bytes32 root) ext...\n      SWAP1 \t\t\tfunction has(bytes32 root) ext...\n      PUSH [tag] 7\t\t\tfunction has(bytes32 root) ext...\n      SWAP2 \t\t\tfunction has(bytes32 root) ext...\n      SWAP1 \t\t\tfunction has(bytes32 root) ext...\n      PUSH [tag] 8\t\t\tfunction has(bytes32 root) ext...\n      JUMP \t\t\tfunction has(bytes32 root) ext...\n    tag 7\t\t\tfunction has(bytes32 root) ext...\n      JUMPDEST \t\t\tfunction has(bytes32 root) ext...\n      PUSH [tag] 9\t\t\tfunction has(bytes32 root) ext...\n      JUMP \t\t\tfunction has(bytes32 root) ext...\n    tag 6\t\t\tfunction has(bytes32 root) ext...\n      JUMPDEST \t\t\tfunction has(bytes32 root) ext...\n      PUSH 40\t\t\tfunction has(bytes32 root) ext...\n      MLOAD \t\t\tfunction has(bytes32 root) ext...\n      PUSH [tag] 10\t\t\tfunction has(bytes32 root) ext...\n      SWAP2 \t\t\tfunction has(bytes32 root) ext...\n      SWAP1 \t\t\tfunction has(bytes32 root) ext...\n      PUSH [tag] 11\t\t\tfunction has(bytes32 root) ext...\n      JUMP \t\t\tfunction has(bytes32 root) ext...\n    tag 10\t\t\tfunction has(bytes32 root) ext...\n      JUMPDEST \t\t\tfunction has(bytes32 root) ext...\n      PUSH 40\t\t\tfunction has(bytes32 root) ext...\n      MLOAD \t\t\tfunction has(bytes32 root) ext...\n      DUP1 \t\t\tfunction has(bytes32 root) ext...\n      SWAP2 \t\t\tfunction has(bytes32 root) ext...\n      SUB \t\t\tfunction has(bytes32 root) ext...\n      SWAP1 \t\t\tfunction has(bytes32 root) ext...\n      RETURN \t\t\tfunction has(bytes32 root) ext...\n    tag 4\t\t\tmapping(bytes32 => bool) publi...\n      JUMPDEST \t\t\tmapping(bytes32 => bool) publi...\n      PUSH [tag] 12\t\t\tmapping(bytes32 => bool) publi...\n      PUSH 4\t\t\tmapping(bytes32 => bool) publi...\n      DUP1 \t\t\tmapping(bytes32 => bool) publi...\n      CALLDATASIZE \t\t\tmapping(bytes32 => bool) publi...\n      SUB \t\t\tmapping(bytes32 => bool) publi...\n      DUP2 \t\t\tmapping(bytes32 => bool) publi...\n      ADD \t\t\tmapping(bytes32 => bool) publi...\n      SWAP1 \t\t\tmapping(bytes32 => bool) publi...\n      PUSH [tag] 13\t\t\tmapping(bytes32 => bool) publi...\n      SWAP2 \t\t\tmapping(bytes32 => bool) publi...\n      SWAP1 \t\t\tmapping(bytes32 => bool) publi...\n      PUSH [tag] 8\t\t\tmapping(bytes32 => bool) publi...\n      JUMP \t\t\tmapping(bytes32 => bool) publi...\n    tag 13\t\t\tmapping(bytes32 => bool) publi...\n      JUMPDEST \t\t\tmapping(bytes32 => bool) publi...\n      PUSH [tag] 14\t\t\tmapping(bytes32 => bool) publi...\n      JUMP \t\t\tmapping(bytes32 => bool) publi...\n    tag 12\t\t\tmapping(bytes32 => bool) publi...\n      JUMPDEST \t\t\tmapping(bytes32 => bool) publi...\n      PUSH 40\t\t\tmapping(bytes32 => bool) publi...\n      MLOAD \t\t\tmapping(bytes32 => bool) publi...\n      PUSH [tag] 15\t\t\tmapping(bytes32 => bool) publi...\n      SWAP2 \t\t\tmapping(bytes32 => bool) publi...\n      SWAP1 \t\t\tmapping(bytes32 => bool) publi...\n      PUSH [tag] 11\t\t\tmapping(bytes32 => bool) publi...\n      JUMP \t\t\tmapping(bytes32 => bool) publi...\n    tag 15\t\t\tmapping(bytes32 => bool) publi...\n      JUMPDEST \t\t\tmapping(bytes32 => bool) publi...\n      PUSH 40\t\t\tmapping(bytes32 => bool) publi...\n      MLOAD \t\t\tmapping(bytes32 => bool) publi...\n      DUP1 \t\t\tmapping(bytes32 => bool) publi...\n      SWAP2 \t\t\tmapping(bytes32 => bool) publi...\n      SUB \t\t\tmapping(bytes32 => bool) publi...\n      SWAP1 \t\t\tmapping(bytes32 => bool) publi...\n      RETURN \t\t\tmapping(bytes32 => bool) publi...\n    tag 5\t\t\tfunction attest(bytes32 root, ...\n      JUMPDEST \t\t\tfunction attest(bytes32 root, ...\n      PUSH [tag] 16\t\t\tfunction attest(bytes32 root, ...\n      PUSH 4\t\t\tfunction attest(bytes32 root, ...\n      DUP1 \t\t\tfunction attest(bytes32 root, ...\n      CALLDATASIZE \t\t\tfunction attest(bytes32 root, ...\n      SUB \t\t\tfunction attest(bytes32 root, ...\n      DUP2 \t\t\tfunction attest(bytes32 root, ...\n      ADD \t\t\tfunction attest(bytes32 root, ...\n      SWAP1 \t\t\tfunction attest(bytes32 root, ...\n      PUSH [tag] 17\t\t\tfunction attest(bytes32 root, ...\n      SWAP2 \t\t\tfunction attest(bytes32 root, ...\n      SWAP1 \t\t\tfunction attest(bytes32 root, ...\n      PUSH [tag] 18\t\t\tfunction attest(bytes32 root, ...\n      JUMP \t\t\tfunction attest(bytes32 root, ...\n    tag 17\t\t\tfunction attest(bytes32 root, ...\n      JUMPDEST \t\t\tfunction attest(bytes32 root, ...\n      PUSH [tag] 19\t\t\tfunction attest(bytes32 root, ...\n      JUMP \t\t\tfunction attest(bytes32 root, ...\n    tag 16\t\t\tfunction attest(bytes32 root, ...\n      JUMPDEST \t\t\tfunction attest(bytes32 root, ...\n      STOP \t\t\tfunction attest(bytes32 root, ...\n    tag 9\t\t\tfunction has(bytes32 root) ext...\n      JUMPDEST \t\t\tfunction has(bytes32 root) ext...\n      PUSH 0\t\t\tbool\n      PUSH 0\t\t\tseen\n      PUSH 0\t\t\tseen[root]\n      DUP4 \t\t\troot\n      DUP2 \t\t\tseen[root]\n      MSTORE \t\t\tseen[root]\n      PUSH 20\t\t\tseen[root]\n      ADD \t\t\tseen[root]\n      SWAP1 \t\t\tseen[root]\n      DUP2 \t\t\tseen[root]\n      MSTORE \t\t\tseen[root]\n      PUSH 20\t\t\tseen[root]\n      ADD \t\t\tseen[root]\n      PUSH 0\t\t\tseen[root]\n      KECCAK256 \t\t\tseen[root]\n      PUSH 0\t\t\tseen[root]\n      SWAP1 \t\t\tseen[root]\n      SLOAD \t\t\tseen[root]\n      SWAP1 \t\t\tseen[root]\n      PUSH 100\t\t\tseen[root]\n      EXP \t\t\tseen[root]\n      SWAP1 \t\t\tseen[root]\n      DIV \t\t\tseen[root]\n      PUSH FF\t\t\tseen[root]\n      AND \t\t\tseen[root]\n      SWAP1 \t\t\treturn seen[root]\n      POP \t\t\treturn seen[root]\n      SWAP2 \t\t\tfunction has(bytes32 root) ext...\n      SWAP1 \t\t\tfunction has(bytes32 root) ext...\n      POP \t\t\tfunction has(bytes32 root) ext...\n      JUMP \t\t\tfunction has(bytes32 root) ext...\n    tag 14\t\t\tmapping(bytes32 => bool) publi...\n      JUMPDEST \t\t\tmapping(bytes32 => bool) publi...\n      PUSH 0\t\t\tmapping(bytes32 => bool) publi...\n      PUSH 20\t\t\tmapping(bytes32 => bool) publi...\n      MSTORE \t\t\tmapping(bytes32 => bool) publi...\n      DUP1 \t\t\tmapping(bytes32 => bool) publi...\n      PUSH 0\t\t\tmapping(bytes32 => bool) publi...\n      MSTORE \t\t\tmapping(bytes32 => bool) publi...\n      PUSH 40\t\t\tmapping(bytes32 => bool) publi...\n      PUSH 0\t\t\tmapping(bytes32 => bool) publi...\n      KECCAK256 \t\t\tmapping(bytes32 => bool) publi...\n      PUSH 0\t\t\tmapping(bytes32 => bool) publi...\n      SWAP2 \t\t\tmapping(bytes32 => bool) publi...\n      POP \t\t\tmapping(bytes32 => bool) publi...\n      SLOAD \t\t\tmapping(bytes32 => bool) publi...\n      SWAP1 \t\t\tmapping(bytes32 => bool) publi...\n      PUSH 100\t\t\tmapping(bytes32 => bool) publi...\n      EXP \t\t\tmapping(bytes32 => bool) publi...\n      SWAP1 \t\t\tmapping(bytes32 => bool) publi...\n      DIV \t\t\tmapping(bytes32 => bool) publi...\n      PUSH FF\t\t\tmapping(bytes32 => bool) publi...\n      AND \t\t\tmapping(bytes32 => bool) publi...\n      DUP2 \t\t\tmapping(bytes32 => bool) publi...\n      JUMP \t\t\tmapping(bytes32 => bool) publi...\n    tag 19\t\t\tfunction attest(bytes32 root, ...\n      JUMPDEST \t\t\tfunction attest(bytes32 root, ...\n      PUSH 0\t\t\t0\n      PUSH 0\t\t\tbytes32(0)\n      SHL \t\t\tbytes32(0)\n      DUP4 \t\t\troot\n      SUB \t\t\troot != bytes32(0)\n      PUSH [tag] 22\t\t\trequire(root != bytes32(0), \"r...\n      JUMPI \t\t\trequire(root != bytes32(0), \"r...\n      PUSH 40\t\t\trequire(root != bytes32(0), \"r...\n      MLOAD \t\t\trequire(root != bytes32(0), \"r...\n      PUSH 8C379A000000000000000000000000000000000000000000000000000000000\t\t\trequire(root != bytes32(0), \"r...\n      DUP2 \t\t\trequire(root != bytes32(0), \"r...\n      MSTORE \t\t\trequire(root != bytes32(0), \"r...\n      PUSH 4\t\t\trequire(root != bytes32(0), \"r...\n      ADD \t\t\trequire(root != bytes32(0), \"r...\n      PUSH [tag] 23\t\t\trequire(root != bytes32(0), \"r...\n      SWAP1 \t\t\trequire(root != bytes32(0), \"r...\n      PUSH [tag] 24\t\t\trequire(root != bytes32(0), \"r...\n      JUMP \t\t\trequire(root != bytes32(0), \"r...\n    tag 23\t\t\trequire(root != bytes32(0), \"r...\n      JUMPDEST \t\t\trequire(root != bytes32(0), \"r...\n      PUSH 40\t\t\trequire(root != bytes32(0), \"r...\n      MLOAD \t\t\trequire(root != bytes32(0), \"r...\n      DUP1 \t\t\trequire(root != bytes32(0), \"r...\n      SWAP2 \t\t\trequire(root != bytes32(0), \"r...\n      SUB \t\t\trequire(root != bytes32(0), \"r...\n      SWAP1 \t\t\trequire(root != bytes32(0), \"r...\n      REVERT \t\t\trequire(root != bytes32(0), \"r...\n    tag 22\t\t\trequire(root != bytes32(0), \"r...\n      JUMPDEST \t\t\trequire(root != bytes32(0), \"r...\n      PUSH 0\t\t\t0\n      DUP3 \t\t\turi\n      DUP3 \t\t\turi\n      SWAP1 \t\t\tbytes(uri).length\n      POP \t\t\tbytes(uri).length\n      GT \t\t\tbytes(uri).length > 0\n      PUSH [tag] 25\t\t\trequire(bytes(uri).length > 0,...\n      JUMPI \t\t\trequire(bytes(uri).length > 0,...\n      PUSH 40\t\t\trequire(bytes(uri).length > 0,...\n      MLOAD \t\t\trequire(bytes(uri).length > 0,...\n      PUSH 8C379A000000000000000000000000000000000000000000000000000000000\t\t\trequire(bytes(uri).length > 0,...\n      DUP2 \t\t\trequire(bytes(uri).length > 0,...\n      MSTORE \t\t\trequire(bytes(uri).length > 0,...\n      PUSH 4\t\t\trequire(bytes(uri).length > 0,...\n      ADD \t\t\trequire(bytes(uri).length > 0,...\n      PUSH [tag] 26\t\t\trequire(bytes(uri).length > 0,...\n      SWAP1 \t\t\trequire(bytes(uri).length > 0,...\n      PUSH [tag] 27\t\t\trequire(bytes(uri).length > 0,...\n      JUMP \t\t\trequire(bytes(uri).length > 0,...\n    tag 26\t\t\trequire(bytes(uri).length > 0,...\n      JUMPDEST \t\t\trequire(bytes(uri).length > 0,...\n      PUSH 40\t\t\trequire(bytes(uri).length > 0,...\n      MLOAD \t\t\trequire(bytes(uri).length > 0,...\n      DUP1 \t\t\trequire(bytes(uri).length > 0,...\n      SWAP2 \t\t\trequire(bytes(uri).length > 0,...\n      SUB \t\t\trequire(bytes(uri).length > 0,...\n      SWAP1 \t\t\trequire(bytes(uri).length > 0,...\n      REVERT \t\t\trequire(bytes(uri).length > 0,...\n    tag 25\t\t\trequire(bytes(uri).length > 0,...\n      JUMPDEST \t\t\trequire(bytes(uri).length > 0,...\n      PUSH 0\t\t\tseen\n      PUSH 0\t\t\tseen[root]\n      DUP5 \t\t\troot\n      DUP2 \t\t\tseen[root]\n      MSTORE \t\t\tseen[root]\n      PUSH 20\t\t\tseen[root]\n      ADD \t\t\tseen[root]\n      SWAP1 \t\t\tseen[root]\n      DUP2 \t\t\tseen[root]\n      MSTORE \t\t\tseen[root]\n      PUSH 20\t\t\tseen[root]\n      ADD \t\t\tseen[root]\n      PUSH 0\t\t\tseen[root]\n      KECCAK256 \t\t\tseen[root]\n      PUSH 0\t\t\tseen[root]\n      SWAP1 \t\t\tseen[root]\n      SLOAD \t\t\tseen[root]\n      SWAP1 \t\t\tseen[root]\n      PUSH 100\t\t\tseen[root]\n      EXP \t\t\tseen[root]\n      SWAP1 \t\t\tseen[root]\n      DIV \t\t\tseen[root]\n      PUSH FF\t\t\tseen[root]\n      AND \t\t\tseen[root]\n      ISZERO \t\t\t!seen[root]\n      PUSH [tag] 28\t\t\trequire(!seen[root], \"root exi...\n      JUMPI \t\t\trequire(!seen[root], \"root exi...\n      PUSH 40\t\t\trequire(!seen[root], \"root exi...\n      MLOAD \t\t\trequire(!seen[root], \"root exi...\n      PUSH 8C379A000000000000000000000000000000000000000000000000000000000\t\t\trequire(!seen[root], \"root exi...\n      DUP2 \t\t\trequire(!seen[root], \"root exi...\n      MSTORE \t\t\trequire(!seen[root], \"root exi...\n      PUSH 4\t\t\trequire(!seen[root], \"root exi...\n      ADD \t\t\trequire(!seen[root], \"root exi...\n      PUSH [tag] 29\t\t\trequire(!seen[root], \"root exi...\n      SWAP1 \t\t\trequire(!seen[root], \"root exi...\n      PUSH [tag] 30\t\t\trequire(!seen[root], \"root exi...\n      JUMP \t\t\trequire(!seen[root], \"root exi...\n    tag 29\t\t\trequire(!seen[root], \"root exi...\n      JUMPDEST \t\t\trequire(!seen[root], \"root exi...\n      PUSH 40\t\t\trequire(!seen[root], \"root exi...\n      MLOAD \t\t\trequire(!seen[root], \"root exi...\n      DUP1 \t\t\trequire(!seen[root], \"root exi...\n      SWAP2 \t\t\trequire(!seen[root], \"root exi...\n      SUB \t\t\trequire(!seen[root], \"root exi...\n      SWAP1 \t\t\trequire(!seen[root], \"root exi...\n      REVERT \t\t\trequire(!seen[root], \"root exi...\n    tag 28\t\t\trequire(!seen[root], \"root exi...\n      JUMPDEST \t\t\trequire(!seen[root], \"root exi...\n      PUSH 1\t\t\ttrue\n      PUSH 0\t\t\tseen\n      PUSH 0\t\t\tseen[root]\n      DUP6 \t\t\troot\n      DUP2 \t\t\tseen[root]\n      MSTORE \t\t\tseen[root]\n      PUSH 20\t\t\tseen[root]\n      ADD \t\t\tseen[root]\n      SWAP1 \t\t\tseen[root]\n      DUP2 \t\t\tseen[root]\n      MSTORE \t\t\tseen[root]\n      PUSH 20\t\t\tseen[root]\n      ADD \t\t\tseen[root]\n      PUSH 0\t\t\tseen[root]\n      KECCAK256 \t\t\tseen[root]\n      PUSH 0\t\t\tseen[root]\n      PUSH 100\t\t\tseen[root] = true\n      EXP \t\t\tseen[root] = true\n      DUP2 \t\t\tseen[root] = true\n      SLOAD \t\t\tseen[root] = true\n      DUP2 \t\t\tseen[root] = true\n      PUSH FF\t\t\tseen[root] = true\n      MUL \t\t\tseen[root] = true\n      NOT \t\t\tseen[root] = true\n      AND \t\t\tseen[root] = true\n      SWAP1 \t\t\tseen[root] = true\n      DUP4 \t\t\tseen[root] = true\n      ISZERO \t\t\tseen[root] = true\n      ISZERO \t\t\tseen[root] = true\n      MUL \t\t\tseen[root] = true\n      OR \t\t\tseen[root] = true\n      SWAP1 \t\t\tseen[root] = true\n      SSTORE \t\t\tseen[root] = true\n      POP \t\t\tseen[root] = true\n      DUP3 \t\t\troot\n      CALLER \t\t\tmsg.sender\n      PUSH FFFFFFFFFFFFFFFFFFFFFFFFFFFFFFFFFFFFFFFF\t\t\tAttested(msg.sender, root, uri...\n      AND \t\t\tAttested(msg.sender, root, uri...\n      PUSH 7970B010F40F6857AD063DAD62DB23E21871719C95336C541F317088DF2D9BDD\t\t\tAttested(msg.sender, root, uri...\n      DUP5 \t\t\turi\n      DUP5 \t\t\turi\n      TIMESTAMP \t\t\tblock.timestamp\n      PUSH 40\t\t\tAttested(msg.sender, root, uri...\n      MLOAD \t\t\tAttested(msg.sender, root, uri...\n      PUSH [tag] 31\t\t\tAttested(msg.sender, root, uri...\n      SWAP4 \t\t\tAttested(msg.sender, root, uri...\n      SWAP3 \t\t\tAttested(msg.sender, root, uri...\n      SWAP2 \t\t\tAttested(msg.sender, root, uri...\n      SWAP1 \t\t\tAttested(msg.sender, root, uri...\n      PUSH [tag] 32\t\t\tAttested(msg.sender, root, uri...\n      JUMP \t\t\tAttested(msg.sender, root, uri...\n    tag 31\t\t\tAttested(msg.sender, root, uri...\n      JUMPDEST \t\t\tAttested(msg.sender, root, uri...\n      PUSH 40\t\t\tAttested(msg.sender, root, uri...\n      MLOAD \t\t\tAttested(msg.sender, root, uri...\n      DUP1 \t\t\tAttested(msg.sender, root, uri...\n      SWAP2 \t\t\tAttested(msg.sender, root, uri...\n      SUB \t\t\tAttested(msg.sender, root, uri...\n      SWAP1 \t\t\tAttested(msg.sender, root, uri...\n      LOG3 \t\t\tAttested(msg.sender, root, uri...\n      POP \t\t\tfunction attest(bytes32 root, ...\n      POP \t\t\tfunction attest(bytes32 root, ...\n      POP \t\t\tfunction attest(bytes32 root, ...\n      JUMP \t\t\tfunction attest(bytes32 root, ...\n    tag 34\t\t\tvent Attested(address indexed ...\n      JUMPDEST \t\t\tvent Attested(address indexed ...\n      PUSH 0\t\t\t3\n      PUSH 0\t\t\tt\n      REVERT \t\t\tping(bytes32\n    tag 35\t\t\tblic seen;\\n    function attes...\n      JUMPDEST \t\t\tblic seen;\\n    function attes...\n      PUSH 0\t\t\t0\n      PUSH 0\t\t\t3\n      REVERT \t\t\t= bytes32(0)\n    tag 36\t\t\ty\");\\n        require(bytes(ur...\n      JUMPDEST \t\t\ty\");\\n        require(bytes(ur...\n      PUSH 0\t\t\th > 0, \n      DUP2 \t\t\trequi\n      SWAP1 \t\t\t);\\n        requi\n      POP \t\t\t);\\n        requi\n      SWAP2 \t\t\ty\");\\n        require(bytes(ur...\n      SWAP1 \t\t\ty\");\\n        require(bytes(ur...\n      POP \t\t\ty\");\\n        require(bytes(ur...\n      JUMP \t\t\ty\");\\n        require(bytes(ur...\n    tag 37\t\t\tt], \"root exists\");\\n        s...\n      JUMPDEST \t\t\tt], \"root exists\");\\n        s...\n      PUSH [tag] 63\t\t\tsender, root, uri, block\n      DUP2 \t\t\t bloc\n      PUSH [tag] 36\t\t\tsender, root, uri, block\n      JUMP \t\t\tsender, root, uri, block\n    tag 63\t\t\tsender, root, uri, block\n      JUMPDEST \t\t\tsender, root, uri, block\n      DUP2 \t\t\ted(ms\n      EQ \t\t\tested(msg.sender, root, uri, b...\n      PUSH [tag] 64\t\t\t  emit Attested(msg.sender, ro...\n      JUMPI \t\t\t  emit Attested(msg.sender, ro...\n      PUSH 0\t\t\t \n      PUSH 0\t\t\t\\n\n      REVERT \t\t\tstamp);\\n    \n    tag 64\t\t\t  emit Attested(msg.sender, ro...\n      JUMPDEST \t\t\t  emit Attested(msg.sender, ro...\n      POP \t\t\tt], \"root exists\");\\n        s...\n      JUMP \t\t\tt], \"root exists\");\\n        s...\n    tag 38\t\t\t has(bytes32 root) external vi...\n      JUMPDEST \t\t\t has(bytes32 root) external vi...\n      PUSH 0\t\t\t) { r\n      DUP2 \t\t\t\n      CALLDATALOAD \t\t\t}\\n\n      SWAP1 \t\t\troot]; }\\n}\\n\n      POP \t\t\troot]; }\\n}\\n\n      PUSH [tag] 66\t\t\t\n      DUP2 \t\t\t\n      PUSH [tag] 37\t\t\t\n      JUMP \t\t\t\n    tag 66\t\t\t\n      JUMPDEST \t\t\t\n      SWAP3 \t\t\t has(bytes32 root) external vi...\n      SWAP2 \t\t\t has(bytes32 root) external vi...\n      POP \t\t\t has(bytes32 root) external vi...\n      POP \t\t\t has(bytes32 root) external vi...\n      JUMP \t\t\t has(bytes32 root) external vi...\n    tag 8\t\t\t\n      JUMPDEST \t\t\t\n      PUSH 0\t\t\t\n      PUSH 20\t\t\t\n      DUP3 \t\t\t\n      DUP5 \t\t\t\n      SUB \t\t\t\n      SLT \t\t\t\n      ISZERO \t\t\t\n      PUSH [tag] 68\t\t\t\n      JUMPI \t\t\t\n      PUSH [tag] 69\t\t\t\n      PUSH [tag] 34\t\t\t\n      JUMP \t\t\t\n    tag 69\t\t\t\n      JUMPDEST \t\t\t\n    tag 68\t\t\t\n      JUMPDEST \t\t\t\n      PUSH 0\t\t\t\n      PUSH [tag] 70\t\t\t\n      DUP5 \t\t\t\n      DUP3 \t\t\t\n      DUP6 \t\t\t\n      ADD \t\t\t\n      PUSH [tag] 38\t\t\t\n      JUMP \t\t\t\n    tag 70\t\t\t\n      JUMPDEST \t\t\t\n      SWAP2 \t\t\t\n      POP \t\t\t\n      POP \t\t\t\n      SWAP3 \t\t\t\n      SWAP2 \t\t\t\n      POP \t\t\t\n      POP \t\t\t\n      JUMP \t\t\t\n    tag 39\t\t\t\n      JUMPDEST \t\t\t\n      PUSH 0\t\t\t\n      DUP2 \t\t\t\n      ISZERO \t\t\t\n      ISZERO \t\t\t\n      SWAP1 \t\t\t\n      POP \t\t\t\n      SWAP2 \t\t\t\n      SWAP1 \t\t\t\n      POP \t\t\t\n      JUMP \t\t\t\n    tag 40\t\t\t\n      JUMPDEST \t\t\t\n      PUSH [tag] 73\t\t\t\n      DUP2 \t\t\t\n      PUSH [tag] 39\t\t\t\n      JUMP \t\t\t\n    tag 73\t\t\t\n      JUMPDEST \t\t\t\n      DUP3 \t\t\t\n      MSTORE \t\t\t\n      POP \t\t\t\n      POP \t\t\t\n      JUMP \t\t\t\n    tag 11\t\t\t\n      JUMPDEST \t\t\t\n      PUSH 0\t\t\t\n      PUSH 20\t\t\t\n      DUP3 \t\t\t\n      ADD \t\t\t\n      SWAP1 \t\t\t\n      POP \t\t\t\n      PUSH [tag] 75\t\t\t\n      PUSH 0\t\t\t\n      DUP4 \t\t\t\n      ADD \t\t\t\n      DUP5 \t\t\t\n      PUSH [tag] 40\t\t\t\n      JUMP \t\t\t\n    tag 75\t\t\t\n      JUMPDEST \t\t\t\n      SWAP3 \t\t\t\n      SWAP2 \t\t\t\n      POP \t\t\t\n      POP \t\t\t\n      JUMP \t\t\t\n    tag 41\t\t\t\n      JUMPDEST \t\t\t\n      PUSH 0\t\t\t\n      PUSH 0\t\t\t\n      REVERT \t\t\t\n    tag 42\t\t\t\n      JUMPDEST \t\t\t\n      PUSH 0\t\t\t\n      PUSH 0\t\t\t\n      REVERT \t\t\t\n    tag 43\t\t\t\n      JUMPDEST \t\t\t\n      PUSH 0\t\t\t\n      PUSH 0\t\t\t\n      REVERT \t\t\t\n    tag 44\t\t\t\n      JUMPDEST \t\t\t\n      PUSH 0\t\t\t\n      PUSH 0\t\t\t\n      DUP4 \t\t\t\n      PUSH 1F\t\t\t\n      DUP5 \t\t\t\n      ADD \t\t\t\n      SLT \t\t\t\n      PUSH [tag] 80\t\t\t\n      JUMPI \t\t\t\n      PUSH [tag] 81\t\t\t\n      PUSH [tag] 41\t\t\t\n      JUMP \t\t\t\n    tag 81\t\t\t\n      JUMPDEST \t\t\t\n    tag 80\t\t\t\n      JUMPDEST \t\t\t\n      DUP3 \t\t\t\n      CALLDATALOAD \t\t\t\n      SWAP1 \t\t\t\n      POP \t\t\t\n      PUSH FFFFFFFFFFFFFFFF\t\t\t\n      DUP2 \t\t\t\n      GT \t\t\t\n      ISZERO \t\t\t\n      PUSH [tag] 82\t\t\t\n      JUMPI \t\t\t\n      PUSH [tag] 83\t\t\t\n      PUSH [tag] 42\t\t\t\n      JUMP \t\t\t\n    tag 83\t\t\t\n      JUMPDEST \t\t\t\n    tag 82\t\t\t\n      JUMPDEST \t\t\t\n      PUSH 20\t\t\t\n      DUP4 \t\t\t\n      ADD \t\t\t\n      SWAP2 \t\t\t\n      POP \t\t\t\n      DUP4 \t\t\t\n      PUSH 1\t\t\t\n      DUP3 \t\t\t\n      MUL \t\t\t\n      DUP4 \t\t\t\n      ADD \t\t\t\n      GT \t\t\t\n      ISZERO \t\t\t\n      PUSH [tag] 84\t\t\t\n      JUMPI \t\t\t\n      PUSH [tag] 85\t\t\t\n      PUSH [tag] 43\t\t\t\n      JUMP \t\t\t\n    tag 85\t\t\t\n      JUMPDEST \t\t\t\n    tag 84\t\t\t\n      JUMPDEST \t\t\t\n      SWAP3 \t\t\t\n      POP \t\t\t\n      SWAP3 \t\t\t\n      SWAP1 \t\t\t\n      POP \t\t\t\n      JUMP \t\t\t\n    tag 18\t\t\t\n      JUMPDEST \t\t\t\n      PUSH 0\t\t\t\n      PUSH 0\t\t\t\n      PUSH 0\t\t\t\n      PUSH 40\t\t\t\n      DUP5 \t\t\t\n      DUP7 \t\t\t\n      SUB \t\t\t\n      SLT \t\t\t\n      ISZERO \t\t\t\n      PUSH [tag] 87\t\t\t\n      JUMPI \t\t\t\n      PUSH [tag] 88\t\t\t\n      PUSH [tag] 34\t\t\t\n      JUMP \t\t\t\n    tag 88\t\t\t\n      JUMPDEST \t\t\t\n    tag 87\t\t\t\n      JUMPDEST \t\t\t\n      PUSH 0\t\t\t\n      PUSH [tag] 89\t\t\t\n      DUP7 \t\t\t\n      DUP3 \t\t\t\n      DUP8 \t\t\t\n      ADD \t\t\t\n      PUSH [tag] 38\t\t\t\n      JUMP \t\t\t\n    tag 89\t\t\t\n      JUMPDEST \t\t\t\n      SWAP4 \t\t\t\n      POP \t\t\t\n      POP \t\t\t\n      PUSH 20\t\t\t\n      DUP5 \t\t\t\n      ADD \t\t\t\n      CALLDATALOAD \t\t\t\n      PUSH FFFFFFFFFFFFFFFF\t\t\t\n      DUP2 \t\t\t\n      GT \t\t\t\n      ISZERO \t\t\t\n      PUSH [tag] 90\t\t\t\n      JUMPI \t\t\t\n      PUSH [tag] 91\t\t\t\n      PUSH [tag] 35\t\t\t\n      JUMP \t\t\t\n    tag 91\t\t\t\n      JUMPDEST \t\t\t\n    tag 90\t\t\t\n      JUMPDEST \t\t\t\n      PUSH [tag] 92\t\t\t\n      DUP7 \t\t\t\n      DUP3 \t\t\t\n      DUP8 \t\t\t\n      ADD \t\t\t\n      PUSH [tag] 44\t\t\t\n      JUMP \t\t\t\n    tag 92\t\t\t\n      JUMPDEST \t\t\t\n      SWAP3 \t\t\t\n      POP \t\t\t\n      SWAP3 \t\t\t\n      POP \t\t\t\n      POP \t\t\t\n      SWAP3 \t\t\t\n      POP \t\t\t\n      SWAP3 \t\t\t\n      POP \t\t\t\n      SWAP3 \t\t\t\n      JUMP \t\t\t\n    tag 45\t\t\t\n      JUMPDEST \t\t\t\n      PUSH 0\t\t\t\n      DUP3 \t\t\t\n      DUP3 \t\t\t\n      MSTORE \t\t\t\n      PUSH 20\t\t\t\n      DUP3 \t\t\t\n      ADD \t\t\t\n      SWAP1 \t\t\t\n      POP \t\t\t\n      SWAP3 \t\t\t\n      SWAP2 \t\t\t\n      POP \t\t\t\n      POP \t\t\t\n      JUMP \t\t\t\n    tag 46\t\t\t\n      JUMPDEST \t\t\t\n      PUSH 726F6F7420656D70747900000000000000000000000000000000000000000000\t\t\t\n      PUSH 0\t\t\t\n      DUP3 \t\t\t\n      ADD \t\t\t\n      MSTORE \t\t\t\n      POP \t\t\t\n      JUMP \t\t\t\n    tag 47\t\t\t\n      JUMPDEST \t\t\t\n      PUSH 0\t\t\t\n      PUSH [tag] 96\t\t\t\n      PUSH A\t\t\t\n      DUP4 \t\t\t\n      PUSH [tag] 45\t\t\t\n      JUMP \t\t\t\n    tag 96\t\t\t\n      JUMPDEST \t\t\t\n      SWAP2 \t\t\t\n      POP \t\t\t\n      PUSH [tag] 97\t\t\t\n      DUP3 \t\t\t\n      PUSH [tag] 46\t\t\t\n      JUMP \t\t\t\n    tag 97\t\t\t\n      JUMPDEST \t\t\t\n      PUSH 20\t\t\t\n      DUP3 \t\t\t\n      ADD \t\t\t\n      SWAP1 \t\t\t\n      POP \t\t\t\n      SWAP2 \t\t\t\n      SWAP1 \t\t\t\n      POP \t\t\t\n      JUMP \t\t\t\n    tag 24\t\t\t\n      JUMPDEST \t\t\t\n      PUSH 0\t\t\t\n      PUSH 20\t\t\t\n      DUP3 \t\t\t\n      ADD \t\t\t\n      SWAP1 \t\t\t\n      POP \t\t\t\n      DUP2 \t\t\t\n      DUP2 \t\t\t\n      SUB \t\t\t\n      PUSH 0\t\t\t\n      DUP4 \t\t\t\n      ADD \t\t\t\n      MSTORE \t\t\t\n      PUSH [tag] 99\t\t\t\n      DUP2 \t\t\t\n      PUSH [tag] 47\t\t\t\n      JUMP \t\t\t\n    tag 99\t\t\t\n      JUMPDEST \t\t\t\n      SWAP1 \t\t\t\n      POP \t\t\t\n      SWAP2 \t\t\t\n      SWAP1 \t\t\t\n      POP \t\t\t\n      JUMP \t\t\t\n    tag 48\t\t\t\n      JUMPDEST \t\t\t\n      PUSH 75726920656D7074790000000000000000000000000000000000000000000000\t\t\t\n      PUSH 0\t\t\t\n      DUP3 \t\t\t\n      ADD \t\t\t\n      MSTORE \t\t\t\n      POP \t\t\t\n      JUMP \t\t\t\n    tag 49\t\t\t\n      JUMPDEST \t\t\t\n      PUSH 0\t\t\t\n      PUSH [tag] 102\t\t\t\n      PUSH 9\t\t\t\n      DUP4 \t\t\t\n      PUSH [tag] 45\t\t\t\n      JUMP \t\t\t\n    tag 102\t\t\t\n      JUMPDEST \t\t\t\n      SWAP2 \t\t\t\n      POP \t\t\t\n      PUSH [tag] 103\t\t\t\n      DUP3 \t\t\t\n      PUSH [tag] 48\t\t\t\n      JUMP \t\t\t\n    tag 103\t\t\t\n      JUMPDEST \t\t\t\n      PUSH 20\t\t\t\n      DUP3 \t\t\t\n      ADD \t\t\t\n      SWAP1 \t\t\t\n      POP \t\t\t\n      SWAP2 \t\t\t\n      SWAP1 \t\t\t\n      POP \t\t\t\n      JUMP \t\t\t\n    tag 27\t\t\t\n      JUMPDEST \t\t\t\n      PUSH 0\t\t\t\n      PUSH 20\t\t\t\n      DUP3 \t\t\t\n      ADD \t\t\t\n      SWAP1 \t\t\t\n      POP \t\t\t\n      DUP2 \t\t\t\n      DUP2 \t\t\t\n      SUB \t\t\t\n      PUSH 0\t\t\t\n      DUP4 \t\t\t\n      ADD \t\t\t\n      MSTORE \t\t\t\n      PUSH [tag] 105\t\t\t\n      DUP2 \t\t\t\n      PUSH [tag] 49\t\t\t\n      JUMP \t\t\t\n    tag 105\t\t\t\n      JUMPDEST \t\t\t\n      SWAP1 \t\t\t\n      POP \t\t\t\n      SWAP2 \t\t\t\n      SWAP1 \t\t\t\n      POP \t\t\t\n      JUMP \t\t\t\n    tag 50\t\t\t\n      JUMPDEST \t\t\t\n      PUSH 726F6F7420657869737473000000000000000000000000000000000000000000\t\t\t\n      PUSH 0\t\t\t\n      DUP3 \t\t\t\n      ADD \t\t\t\n      MSTORE \t\t\t\n      POP \t\t\t\n      JUMP \t\t\t\n    tag 51\t\t\t\n      JUMPDEST \t\t\t\n      PUSH 0\t\t\t\n      PUSH [tag] 108\t\t\t\n      PUSH B\t\t\t\n      DUP4 \t\t\t\n      PUSH [tag] 45\t\t\t\n      JUMP \t\t\t\n    tag 108\t\t\t\n      JUMPDEST \t\t\t\n      SWAP2 \t\t\t\n      POP \t\t\t\n      PUSH [tag] 109\t\t\t\n      DUP3 \t\t\t\n      PUSH [tag] 50\t\t\t\n      JUMP \t\t\t\n    tag 109\t\t\t\n      JUMPDEST \t\t\t\n      PUSH 20\t\t\t\n      DUP3 \t\t\t\n      ADD \t\t\t\n      SWAP1 \t\t\t\n      POP \t\t\t\n      SWAP2 \t\t\t\n      SWAP1 \t\t\t\n      POP \t\t\t\n      JUMP \t\t\t\n    tag 30\t\t\t\n      JUMPDEST \t\t\t\n      PUSH 0\t\t\t\n      PUSH 20\t\t\t\n      DUP3 \t\t\t\n      ADD \t\t\t\n      SWAP1 \t\t\t\n      POP \t\t\t\n      DUP2 \t\t\t\n      DUP2 \t\t\t\n      SUB \t\t\t\n      PUSH 0\t\t\t\n      DUP4 \t\t\t\n      ADD \t\t\t\n      MSTORE \t\t\t\n      PUSH [tag] 111\t\t\t\n      DUP2 \t\t\t\n      PUSH [tag] 51\t\t\t\n      JUMP \t\t\t\n    tag 111\t\t\t\n      JUMPDEST \t\t\t\n      SWAP1 \t\t\t\n      POP \t\t\t\n      SWAP2 \t\t\t\n      SWAP1 \t\t\t\n      POP \t\t\t\n      JUMP \t\t\t\n    tag 52\t\t\t\n      JUMPDEST \t\t\t\n      DUP3 \t\t\t\n      DUP2 \t\t\t\n      DUP4 \t\t\t\n      CALLDATACOPY \t\t\t\n      PUSH 0\t\t\t\n      DUP4 \t\t\t\n      DUP4 \t\t\t\n      ADD \t\t\t\n      MSTORE \t\t\t\n      POP \t\t\t\n      POP \t\t\t\n      POP \t\t\t\n      JUMP \t\t\t\n    tag 53\t\t\t\n      JUMPDEST \t\t\t\n      PUSH 0\t\t\t\n      PUSH 1F\t\t\t\n      NOT \t\t\t\n      PUSH 1F\t\t\t\n      DUP4 \t\t\t\n      ADD \t\t\t\n      AND \t\t\t\n      SWAP1 \t\t\t\n      POP \t\t\t\n      SWAP2 \t\t\t\n      SWAP1 \t\t\t\n      POP \t\t\t\n      JUMP \t\t\t\n    tag 54\t\t\t\n      JUMPDEST \t\t\t\n      PUSH 0\t\t\t\n      PUSH [tag] 115\t\t\t\n      DUP4 \t\t\t\n      DUP6 \t\t\t\n      PUSH [tag] 45\t\t\t\n      JUMP \t\t\t\n    tag 115\t\t\t\n      JUMPDEST \t\t\t\n      SWAP4 \t\t\t\n      POP \t\t\t\n      PUSH [tag] 116\t\t\t\n      DUP4 \t\t\t\n      DUP6 \t\t\t\n      DUP5 \t\t\t\n      PUSH [tag] 52\t\t\t\n      JUMP \t\t\t\n    tag 116\t\t\t\n      JUMPDEST \t\t\t\n      PUSH [tag] 117\t\t\t\n      DUP4 \t\t\t\n      PUSH [tag] 53\t\t\t\n      JUMP \t\t\t\n    tag 117\t\t\t\n      JUMPDEST \t\t\t\n      DUP5 \t\t\t\n      ADD \t\t\t\n      SWAP1 \t\t\t\n      POP \t\t\t\n      SWAP4 \t\t\t\n      SWAP3 \t\t\t\n      POP \t\t\t\n      POP \t\t\t\n      POP \t\t\t\n      JUMP \t\t\t\n    tag 55\t\t\t\n      JUMPDEST \t\t\t\n      PUSH 0\t\t\t\n      DUP2 \t\t\t\n      SWAP1 \t\t\t\n      POP \t\t\t\n      SWAP2 \t\t\t\n      SWAP1 \t\t\t\n      POP \t\t\t\n      JUMP \t\t\t\n    tag 56\t\t\t\n      JUMPDEST \t\t\t\n      PUSH [tag] 120\t\t\t\n      DUP2 \t\t\t\n      PUSH [tag] 55\t\t\t\n      JUMP \t\t\t\n    tag 120\t\t\t\n      JUMPDEST \t\t\t\n      DUP3 \t\t\t\n      MSTORE \t\t\t\n      POP \t\t\t\n      POP \t\t\t\n      JUMP \t\t\t\n    tag 32\t\t\t\n      JUMPDEST \t\t\t\n      PUSH 0\t\t\t\n      PUSH 40\t\t\t\n      DUP3 \t\t\t\n      ADD \t\t\t\n      SWAP1 \t\t\t\n      POP \t\t\t\n      DUP2 \t\t\t\n      DUP2 \t\t\t\n      SUB \t\t\t\n      PUSH 0\t\t\t\n      DUP4 \t\t\t\n      ADD \t\t\t\n      MSTORE \t\t\t\n      PUSH [tag] 122\t\t\t\n      DUP2 \t\t\t\n      DUP6 \t\t\t\n      DUP8 \t\t\t\n      PUSH [tag] 54\t\t\t\n      JUMP \t\t\t\n    tag 122\t\t\t\n      JUMPDEST \t\t\t\n      SWAP1 \t\t\t\n      POP \t\t\t\n      PUSH [tag] 123\t\t\t\n      PUSH 20\t\t\t\n      DUP4 \t\t\t\n      ADD \t\t\t\n      DUP5 \t\t\t\n      PUSH [tag] 56\t\t\t\n      JUMP \t\t\t\n    tag 123\t\t\t\n      JUMPDEST \t\t\t\n      SWAP5 \t\t\t\n      SWAP4 \t\t\t\n      POP \t\t\t\n      POP \t\t\t\n      POP \t\t\t\n      POP \t\t\t\n      JUMP \t\t\t\n    .data\n"
}